:1000000020C038C037C036C035C034C033C032C05D
:10001000EAC030C00501020304060501020304051D
:100020000103000002AA640000900102FF3075B4D1
:10003000000001B4000001800000010F0000010376
:10004000000011241FBECFE9CDBF10E0A0E6B0E054
:10005000E2E6F3E002C005900D92A837B107D9F7A8
:1000600010E0A8E7B0E001C01D92A238B107E1F7A7
:10007000E3D075C1C5CF8F5F861301C080E00895BE
:10008000809178006FEF90E05CD1809178008F5F75
:10009000803409F480E08093780060917D0062955F
:1000A000607F90917E00692B90E04BC190917F0022
:1000B000911102C089BD089586BF089520917F00E7
:1000C00030E0F901E358FF4F8083F901E058FF4F1A
:1000D0001082220F331FF901E758FF4F81E090E0B3
:1000E00091838083CDCF1F93CF93DF9320917F00A7
:1000F00030E0F901EE0FFF1FE05AFF4F6081718180
:10010000DB019D9180E0AD0123583F4F891799F0A5
:10011000FB01C491FD01D4911196F90110818F5F0B
:100120001D13F4CF8C1301C080E090E00196FB0119
:10013000E80FF91F01C0FA018491DF91CF911F915F
:10014000BDCF0F931F93CF9340917F0050E0FA01F2
:10015000EE0FFF1FE758FF4F80819181843F21E020
:10016000920708F038C0FA01E358FF4FE081F0E051
:10017000EE0FFF1FEC59FF4FA081B181FD01C4912B
:10018000FA01E058FF4F808190E063E070E0C0D05A
:100190009C01AC014F5F5F4FFD01E40FF51F84919F
:1001A0002E5F3F4FFD01E20FF31F059114917EDF9B
:1001B000E0917F00F0E0DF01AA0FBB1FA758BF4FFF
:1001C0000D931C93E058FF4F80818F5F8C1301C00B
:1001D00080E0808304C0845F914091838083CF91CD
:1001E0001F910F9108951F920F920FB60F92112435
:1001F0002F933F934F935F936F937F938F939F932F
:10020000AF93BF93EF93FF9310927F009ADF81E04B
:1002100080937F0096DFFF91EF91BF91AF919F9107
:100220008F917F916F915F914F913F912F910F909F
:100230000FBE0F901F90189580E188BB83EA8FBD99
:10024000C0917800C03448F48C2F90E072D0CF5F1A
:10025000C09378008F3FA1F301C08FEF9091780099
:10026000903440F4982F907F90937D008F7080930E
:100270007E0002C010927800A39A83E687B986ECCC
:1002800086B93699FECF369A3699FECF85B18095DC
:1002900037988E3118F410927F0005C0863428F408
:1002A00081E080937F001FDF1FC0E0916000F0912C
:1002B00061003196E491E0937D00E0916200F0915D
:1002C00063003196E491E0937E00109281001092D9
:1002D000800081E090E090937C0080937B0090937D
:1002E0007A0080937900CCDEF894A89581B5886176
:1002F00081BD85E481BD789485B7877E806185BFA7
:1003000085B7806285BF889585B78F7D85BFF4CF1F
:100310000024552704C0080E591F880F991F009705
:1003200029F076956795B8F37105B9F7802D952F6B
:100330000895E199FECF1FBA8EBBE09A99278DB33D
:100340000895262FE199FECF1CBA1FBA8EBB2DBB94
:100350000FB6F894E29AE19A0FBE01960895F894C8
:02036000FFCFCD
:100362001A00140000003E003A00360032002B0052
:0803720024000000000020003F
:00000001FF
